{
  "contractName": "VirusInfect",
  "abi": [
    {
      "anonymous": false,
      "inputs": [
        {
          "indexed": true,
          "internalType": "address",
          "name": "owner",
          "type": "address"
        },
        {
          "indexed": true,
          "internalType": "address",
          "name": "approved",
          "type": "address"
        },
        {
          "indexed": true,
          "internalType": "uint256",
          "name": "tokenId",
          "type": "uint256"
        }
      ],
      "name": "Approval",
      "type": "event"
    },
    {
      "anonymous": false,
      "inputs": [
        {
          "indexed": true,
          "internalType": "address",
          "name": "owner",
          "type": "address"
        },
        {
          "indexed": true,
          "internalType": "address",
          "name": "operator",
          "type": "address"
        },
        {
          "indexed": false,
          "internalType": "bool",
          "name": "approved",
          "type": "bool"
        }
      ],
      "name": "ApprovalForAll",
      "type": "event"
    },
    {
      "anonymous": false,
      "inputs": [
        {
          "indexed": true,
          "internalType": "address",
          "name": "from",
          "type": "address"
        },
        {
          "indexed": true,
          "internalType": "address",
          "name": "to",
          "type": "address"
        },
        {
          "indexed": true,
          "internalType": "uint256",
          "name": "tokenId",
          "type": "uint256"
        }
      ],
      "name": "Transfer",
      "type": "event"
    },
    {
      "anonymous": false,
      "inputs": [
        {
          "indexed": false,
          "internalType": "uint256",
          "name": "tokenId",
          "type": "uint256"
        }
      ],
      "name": "Winner",
      "type": "event"
    },
    {
      "inputs": [
        {
          "internalType": "address",
          "name": "to",
          "type": "address"
        },
        {
          "internalType": "uint256",
          "name": "tokenId",
          "type": "uint256"
        }
      ],
      "name": "approve",
      "outputs": [],
      "stateMutability": "nonpayable",
      "type": "function"
    },
    {
      "inputs": [
        {
          "internalType": "address",
          "name": "owner",
          "type": "address"
        }
      ],
      "name": "balanceOf",
      "outputs": [
        {
          "internalType": "uint256",
          "name": "",
          "type": "uint256"
        }
      ],
      "stateMutability": "view",
      "type": "function"
    },
    {
      "inputs": [],
      "name": "baseURI",
      "outputs": [
        {
          "internalType": "string",
          "name": "",
          "type": "string"
        }
      ],
      "stateMutability": "view",
      "type": "function"
    },
    {
      "inputs": [],
      "name": "cooldownPeriod",
      "outputs": [
        {
          "internalType": "uint256",
          "name": "",
          "type": "uint256"
        }
      ],
      "stateMutability": "view",
      "type": "function"
    },
    {
      "inputs": [
        {
          "internalType": "uint256",
          "name": "tokenId",
          "type": "uint256"
        }
      ],
      "name": "getApproved",
      "outputs": [
        {
          "internalType": "address",
          "name": "",
          "type": "address"
        }
      ],
      "stateMutability": "view",
      "type": "function"
    },
    {
      "inputs": [
        {
          "internalType": "address",
          "name": "owner",
          "type": "address"
        },
        {
          "internalType": "address",
          "name": "operator",
          "type": "address"
        }
      ],
      "name": "isApprovedForAll",
      "outputs": [
        {
          "internalType": "bool",
          "name": "",
          "type": "bool"
        }
      ],
      "stateMutability": "view",
      "type": "function"
    },
    {
      "inputs": [
        {
          "internalType": "string",
          "name": "_name",
          "type": "string"
        },
        {
          "internalType": "uint256",
          "name": "_level",
          "type": "uint256"
        },
        {
          "internalType": "address",
          "name": "_newOwner",
          "type": "address"
        }
      ],
      "name": "mintVirus",
      "outputs": [],
      "stateMutability": "nonpayable",
      "type": "function"
    },
    {
      "inputs": [],
      "name": "name",
      "outputs": [
        {
          "internalType": "string",
          "name": "",
          "type": "string"
        }
      ],
      "stateMutability": "view",
      "type": "function"
    },
    {
      "inputs": [
        {
          "internalType": "uint256",
          "name": "tokenId",
          "type": "uint256"
        }
      ],
      "name": "ownerOf",
      "outputs": [
        {
          "internalType": "address",
          "name": "",
          "type": "address"
        }
      ],
      "stateMutability": "view",
      "type": "function"
    },
    {
      "inputs": [
        {
          "internalType": "address",
          "name": "",
          "type": "address"
        }
      ],
      "name": "ownerVirusCount",
      "outputs": [
        {
          "internalType": "uint256",
          "name": "",
          "type": "uint256"
        }
      ],
      "stateMutability": "view",
      "type": "function"
    },
    {
      "inputs": [],
      "name": "requiredToWin",
      "outputs": [
        {
          "internalType": "uint256",
          "name": "",
          "type": "uint256"
        }
      ],
      "stateMutability": "view",
      "type": "function"
    },
    {
      "inputs": [
        {
          "internalType": "address",
          "name": "from",
          "type": "address"
        },
        {
          "internalType": "address",
          "name": "to",
          "type": "address"
        },
        {
          "internalType": "uint256",
          "name": "tokenId",
          "type": "uint256"
        }
      ],
      "name": "safeTransferFrom",
      "outputs": [],
      "stateMutability": "nonpayable",
      "type": "function"
    },
    {
      "inputs": [
        {
          "internalType": "address",
          "name": "from",
          "type": "address"
        },
        {
          "internalType": "address",
          "name": "to",
          "type": "address"
        },
        {
          "internalType": "uint256",
          "name": "tokenId",
          "type": "uint256"
        },
        {
          "internalType": "bytes",
          "name": "_data",
          "type": "bytes"
        }
      ],
      "name": "safeTransferFrom",
      "outputs": [],
      "stateMutability": "nonpayable",
      "type": "function"
    },
    {
      "inputs": [
        {
          "internalType": "address",
          "name": "operator",
          "type": "address"
        },
        {
          "internalType": "bool",
          "name": "approved",
          "type": "bool"
        }
      ],
      "name": "setApprovalForAll",
      "outputs": [],
      "stateMutability": "nonpayable",
      "type": "function"
    },
    {
      "inputs": [
        {
          "internalType": "bytes4",
          "name": "interfaceId",
          "type": "bytes4"
        }
      ],
      "name": "supportsInterface",
      "outputs": [
        {
          "internalType": "bool",
          "name": "",
          "type": "bool"
        }
      ],
      "stateMutability": "view",
      "type": "function"
    },
    {
      "inputs": [],
      "name": "symbol",
      "outputs": [
        {
          "internalType": "string",
          "name": "",
          "type": "string"
        }
      ],
      "stateMutability": "view",
      "type": "function"
    },
    {
      "inputs": [
        {
          "internalType": "uint256",
          "name": "index",
          "type": "uint256"
        }
      ],
      "name": "tokenByIndex",
      "outputs": [
        {
          "internalType": "uint256",
          "name": "",
          "type": "uint256"
        }
      ],
      "stateMutability": "view",
      "type": "function"
    },
    {
      "inputs": [
        {
          "internalType": "address",
          "name": "owner",
          "type": "address"
        },
        {
          "internalType": "uint256",
          "name": "index",
          "type": "uint256"
        }
      ],
      "name": "tokenOfOwnerByIndex",
      "outputs": [
        {
          "internalType": "uint256",
          "name": "",
          "type": "uint256"
        }
      ],
      "stateMutability": "view",
      "type": "function"
    },
    {
      "inputs": [
        {
          "internalType": "uint256",
          "name": "tokenId",
          "type": "uint256"
        }
      ],
      "name": "tokenURI",
      "outputs": [
        {
          "internalType": "string",
          "name": "",
          "type": "string"
        }
      ],
      "stateMutability": "view",
      "type": "function"
    },
    {
      "inputs": [],
      "name": "totalSupply",
      "outputs": [
        {
          "internalType": "uint256",
          "name": "",
          "type": "uint256"
        }
      ],
      "stateMutability": "view",
      "type": "function"
    },
    {
      "inputs": [
        {
          "internalType": "address",
          "name": "from",
          "type": "address"
        },
        {
          "internalType": "address",
          "name": "to",
          "type": "address"
        },
        {
          "internalType": "uint256",
          "name": "tokenId",
          "type": "uint256"
        }
      ],
      "name": "transferFrom",
      "outputs": [],
      "stateMutability": "nonpayable",
      "type": "function"
    },
    {
      "inputs": [
        {
          "internalType": "uint256",
          "name": "",
          "type": "uint256"
        }
      ],
      "name": "virusToOwner",
      "outputs": [
        {
          "internalType": "address",
          "name": "",
          "type": "address"
        }
      ],
      "stateMutability": "view",
      "type": "function"
    },
    {
      "inputs": [
        {
          "internalType": "uint256",
          "name": "",
          "type": "uint256"
        }
      ],
      "name": "viruses",
      "outputs": [
        {
          "internalType": "string",
          "name": "name",
          "type": "string"
        },
        {
          "internalType": "uint256",
          "name": "level",
          "type": "uint256"
        },
        {
          "internalType": "uint256",
          "name": "wins",
          "type": "uint256"
        },
        {
          "internalType": "uint256",
          "name": "losses",
          "type": "uint256"
        },
        {
          "internalType": "uint32",
          "name": "cooldown",
          "type": "uint32"
        }
      ],
      "stateMutability": "view",
      "type": "function"
    },
    {
      "inputs": [
        {
          "internalType": "uint256",
          "name": "_virusId",
          "type": "uint256"
        },
        {
          "internalType": "uint256",
          "name": "_enemyId",
          "type": "uint256"
        }
      ],
      "name": "infect",
      "outputs": [],
      "stateMutability": "nonpayable",
      "type": "function"
    }
  ],
  "bytecode": "0x6080604052603c600d556006600e553480156200001b57600080fd5b506040518060400160405280600b81526020017f43727970746f56697275730000000000000000000000000000000000000000008152506040518060400160405280600581526020017f5669727573000000000000000000000000000000000000000000000000000000815250620000a06301ffc9a760e01b6200012260201b60201c565b8160069080519060200190620000b89291906200022b565b508060079080519060200190620000d19291906200022b565b50620000ea6380ac58cd60e01b6200012260201b60201c565b62000102635b5e139f60e01b6200012260201b60201c565b6200011a63780e9d6360e01b6200012260201b60201c565b5050620002d1565b63ffffffff60e01b817bffffffffffffffffffffffffffffffffffffffffffffffffffffffff19161415620001bf576040517f08c379a000000000000000000000000000000000000000000000000000000000815260040180806020018281038252601c8152602001807f4552433136353a20696e76616c696420696e746572666163652069640000000081525060200191505060405180910390fd5b6001600080837bffffffffffffffffffffffffffffffffffffffffffffffffffffffff19167bffffffffffffffffffffffffffffffffffffffffffffffffffffffff1916815260200190815260200160002060006101000a81548160ff02191690831515021790555050565b828054600181600116156101000203166002900490600052602060002090601f016020900481019282601f106200026e57805160ff19168380011785556200029f565b828001600101855582156200029f579182015b828111156200029e57825182559160200191906001019062000281565b5b509050620002ae9190620002b2565b5090565b5b80821115620002cd576000816000905550600101620002b3565b5090565b61362580620002e16000396000f3fe608060405234801561001057600080fd5b50600436106101585760003560e01c80636352211e116100c35780639b6347351161007c5780639b6347351461080c578063a22cb4651461082a578063b88d4fde1461087a578063bfe4ff091461097f578063c87b56dd14610a64578063e985e9c514610b0b57610158565b80636352211e146105a65780636862f03d146105fe5780636c0360eb1461065657806370a08231146106d9578063914a345a1461073157806395d89b411461078957610158565b80631bb57b96116101155780631bb57b961461032557806323b872dd146103ee5780632f745c591461045c57806342842e0e146104be5780634f6ccce71461052c57806360fd52b11461056e57610158565b806301ffc9a71461015d57806304646a49146101c057806306fdde03146101de578063081812fc14610261578063095ea7b3146102b957806318160ddd14610307575b600080fd5b6101a86004803603602081101561017357600080fd5b8101908080357bffffffffffffffffffffffffffffffffffffffffffffffffffffffff19169060200190929190505050610b85565b60405180821515815260200191505060405180910390f35b6101c8610bec565b6040518082815260200191505060405180910390f35b6101e6610bf2565b6040518080602001828103825283818151815260200191508051906020019080838360005b8381101561022657808201518184015260208101905061020b565b50505050905090810190601f1680156102535780820380516001836020036101000a031916815260200191505b509250505060405180910390f35b61028d6004803603602081101561027757600080fd5b8101908080359060200190929190505050610c94565b604051808273ffffffffffffffffffffffffffffffffffffffff16815260200191505060405180910390f35b610305600480360360408110156102cf57600080fd5b81019080803573ffffffffffffffffffffffffffffffffffffffff16906020019092919080359060200190929190505050610d2f565b005b61030f610e73565b6040518082815260200191505060405180910390f35b6103516004803603602081101561033b57600080fd5b8101908080359060200190929190505050610e84565b60405180806020018681526020018581526020018481526020018363ffffffff168152602001828103825287818151815260200191508051906020019080838360005b838110156103af578082015181840152602081019050610394565b50505050905090810190601f1680156103dc5780820380516001836020036101000a031916815260200191505b50965050505050505060405180910390f35b61045a6004803603606081101561040457600080fd5b81019080803573ffffffffffffffffffffffffffffffffffffffff169060200190929190803573ffffffffffffffffffffffffffffffffffffffff16906020019092919080359060200190929190505050610f6f565b005b6104a86004803603604081101561047257600080fd5b81019080803573ffffffffffffffffffffffffffffffffffffffff16906020019092919080359060200190929190505050610fe5565b6040518082815260200191505060405180910390f35b61052a600480360360608110156104d457600080fd5b81019080803573ffffffffffffffffffffffffffffffffffffffff169060200190929190803573ffffffffffffffffffffffffffffffffffffffff16906020019092919080359060200190929190505050611040565b005b6105586004803603602081101561054257600080fd5b8101908080359060200190929190505050611060565b6040518082815260200191505060405180910390f35b6105a46004803603604081101561058457600080fd5b810190808035906020019092919080359060200190929190505050611083565b005b6105d2600480360360208110156105bc57600080fd5b81019080803590602001909291905050506112c2565b604051808273ffffffffffffffffffffffffffffffffffffffff16815260200191505060405180910390f35b61062a6004803603602081101561061457600080fd5b81019080803590602001909291905050506112f9565b604051808273ffffffffffffffffffffffffffffffffffffffff16815260200191505060405180910390f35b61065e61132c565b6040518080602001828103825283818151815260200191508051906020019080838360005b8381101561069e578082015181840152602081019050610683565b50505050905090810190601f1680156106cb5780820380516001836020036101000a031916815260200191505b509250505060405180910390f35b61071b600480360360208110156106ef57600080fd5b81019080803573ffffffffffffffffffffffffffffffffffffffff1690602001909291905050506113ce565b6040518082815260200191505060405180910390f35b6107736004803603602081101561074757600080fd5b81019080803573ffffffffffffffffffffffffffffffffffffffff1690602001909291905050506114a3565b6040518082815260200191505060405180910390f35b6107916114bb565b6040518080602001828103825283818151815260200191508051906020019080838360005b838110156107d15780820151818401526020810190506107b6565b50505050905090810190601f1680156107fe5780820380516001836020036101000a031916815260200191505b509250505060405180910390f35b61081461155d565b6040518082815260200191505060405180910390f35b6108786004803603604081101561084057600080fd5b81019080803573ffffffffffffffffffffffffffffffffffffffff169060200190929190803515159060200190929190505050611563565b005b61097d6004803603608081101561089057600080fd5b81019080803573ffffffffffffffffffffffffffffffffffffffff169060200190929190803573ffffffffffffffffffffffffffffffffffffffff16906020019092919080359060200190929190803590602001906401000000008111156108f757600080fd5b82018360208201111561090957600080fd5b8035906020019184600183028401116401000000008311171561092b57600080fd5b91908080601f016020809104026020016040519081016040528093929190818152602001838380828437600081840152601f19601f820116905080830192505050505050509192919290505050611719565b005b610a626004803603606081101561099557600080fd5b81019080803590602001906401000000008111156109b257600080fd5b8201836020820111156109c457600080fd5b803590602001918460018302840111640100000000831117156109e657600080fd5b91908080601f016020809104026020016040519081016040528093929190818152602001838380828437600081840152601f19601f82011690508083019250505050505050919291929080359060200190929190803573ffffffffffffffffffffffffffffffffffffffff169060200190929190505050611791565b005b610a9060048036036020811015610a7a57600080fd5b81019080803590602001909291905050506118f5565b6040518080602001828103825283818151815260200191508051906020019080838360005b83811015610ad0578082015181840152602081019050610ab5565b50505050905090810190601f168015610afd5780820380516001836020036101000a031916815260200191505b509250505060405180910390f35b610b6d60048036036040811015610b2157600080fd5b81019080803573ffffffffffffffffffffffffffffffffffffffff169060200190929190803573ffffffffffffffffffffffffffffffffffffffff169060200190929190505050611bc6565b60405180821515815260200191505060405180910390f35b6000806000837bffffffffffffffffffffffffffffffffffffffffffffffffffffffff19167bffffffffffffffffffffffffffffffffffffffffffffffffffffffff1916815260200190815260200160002060009054906101000a900460ff169050919050565b600d5481565b606060068054600181600116156101000203166002900480601f016020809104026020016040519081016040528092919081815260200182805460018160011615610100020316600290048015610c8a5780601f10610c5f57610100808354040283529160200191610c8a565b820191906000526020600020905b815481529060010190602001808311610c6d57829003601f168201915b5050505050905090565b6000610c9f82611c5a565b610cf4576040517f08c379a000000000000000000000000000000000000000000000000000000000815260040180806020018281038252602c81526020018061351a602c913960400191505060405180910390fd5b6004600083815260200190815260200160002060009054906101000a900473ffffffffffffffffffffffffffffffffffffffff169050919050565b6000610d3a826112c2565b90508073ffffffffffffffffffffffffffffffffffffffff168373ffffffffffffffffffffffffffffffffffffffff161415610dc1576040517f08c379a000000000000000000000000000000000000000000000000000000000815260040180806020018281038252602181526020018061359e6021913960400191505060405180910390fd5b8073ffffffffffffffffffffffffffffffffffffffff16610de0611c77565b73ffffffffffffffffffffffffffffffffffffffff161480610e0f5750610e0e81610e09611c77565b611bc6565b5b610e64576040517f08c379a000000000000000000000000000000000000000000000000000000000815260040180806020018281038252603881526020018061346d6038913960400191505060405180910390fd5b610e6e8383611c7f565b505050565b6000610e7f6002611d38565b905090565b600a8181548110610e9157fe5b9060005260206000209060050201600091509050806000018054600181600116156101000203166002900480601f016020809104026020016040519081016040528092919081815260200182805460018160011615610100020316600290048015610f3d5780601f10610f1257610100808354040283529160200191610f3d565b820191906000526020600020905b815481529060010190602001808311610f2057829003601f168201915b5050505050908060010154908060020154908060030154908060040160009054906101000a900463ffffffff16905085565b610f80610f7a611c77565b82611d4d565b610fd5576040517f08c379a00000000000000000000000000000000000000000000000000000000081526004018080602001828103825260318152602001806135bf6031913960400191505060405180910390fd5b610fe0838383611e41565b505050565b600061103882600160008673ffffffffffffffffffffffffffffffffffffffff1673ffffffffffffffffffffffffffffffffffffffff16815260200190815260200160002061208490919063ffffffff16565b905092915050565b61105b83838360405180602001604052806000815250611719565b505050565b60008061107783600261209e90919063ffffffff16565b50905080915050919050565b813373ffffffffffffffffffffffffffffffffffffffff16600b600083815260200190815260200160002060009054906101000a900473ffffffffffffffffffffffffffffffffffffffff1673ffffffffffffffffffffffffffffffffffffffff1614611158576040517f08c379a000000000000000000000000000000000000000000000000000000000815260040180806020018281038252601b8152602001807f6d73672e73656e646572206973206e6f7420746865206f776e6572000000000081525060200191505060405180910390fd5b611161836120ca565b6111d3576040517f08c379a000000000000000000000000000000000000000000000000000000000815260040180806020018281038252601a8152602001807f7669727573206973207374696c6c20696e20636f6f6c646f776e00000000000081525060200191505060405180910390fd5b6000600a84815481106111e257fe5b906000526020600020906005020190506000600a848154811061120157fe5b90600052602060002090600502019050600061121d600a6121f8565b9050600e5481111561126f576112338383612262565b7fbb3d2435d73ea44ac623b225c6c58edec133edbcc0326a6f1e9d1d5b438252ff866040518082815260200191505060405180910390a16112b1565b6112798284612262565b7fbb3d2435d73ea44ac623b225c6c58edec133edbcc0326a6f1e9d1d5b438252ff856040518082815260200191505060405180910390a15b6112ba836122c6565b505050505050565b60006112f2826040518060600160405280602981526020016134cf6029913960026122f09092919063ffffffff16565b9050919050565b600b6020528060005260406000206000915054906101000a900473ffffffffffffffffffffffffffffffffffffffff1681565b606060098054600181600116156101000203166002900480601f0160208091040260200160405190810160405280929190818152602001828054600181600116156101000203166002900480156113c45780601f10611399576101008083540402835291602001916113c4565b820191906000526020600020905b8154815290600101906020018083116113a757829003601f168201915b5050505050905090565b60008073ffffffffffffffffffffffffffffffffffffffff168273ffffffffffffffffffffffffffffffffffffffff161415611455576040517f08c379a000000000000000000000000000000000000000000000000000000000815260040180806020018281038252602a8152602001806134a5602a913960400191505060405180910390fd5b61149c600160008473ffffffffffffffffffffffffffffffffffffffff1673ffffffffffffffffffffffffffffffffffffffff16815260200190815260200160002061230f565b9050919050565b600c6020528060005260406000206000915090505481565b606060078054600181600116156101000203166002900480601f0160208091040260200160405190810160405280929190818152602001828054600181600116156101000203166002900480156115535780601f1061152857610100808354040283529160200191611553565b820191906000526020600020905b81548152906001019060200180831161153657829003601f168201915b5050505050905090565b600e5481565b61156b611c77565b73ffffffffffffffffffffffffffffffffffffffff168273ffffffffffffffffffffffffffffffffffffffff16141561160c576040517f08c379a00000000000000000000000000000000000000000000000000000000081526004018080602001828103825260198152602001807f4552433732313a20617070726f766520746f2063616c6c65720000000000000081525060200191505060405180910390fd5b8060056000611619611c77565b73ffffffffffffffffffffffffffffffffffffffff1673ffffffffffffffffffffffffffffffffffffffff16815260200190815260200160002060008473ffffffffffffffffffffffffffffffffffffffff1673ffffffffffffffffffffffffffffffffffffffff16815260200190815260200160002060006101000a81548160ff0219169083151502179055508173ffffffffffffffffffffffffffffffffffffffff166116c6611c77565b73ffffffffffffffffffffffffffffffffffffffff167f17307eab39ab6107e8899845ad3d59bd9653f200f220920489ca2b5937696c318360405180821515815260200191505060405180910390a35050565b61172a611724611c77565b83611d4d565b61177f576040517f08c379a00000000000000000000000000000000000000000000000000000000081526004018080602001828103825260318152602001806135bf6031913960400191505060405180910390fd5b61178b84848484612324565b50505050565b600082101580156117a25750600a82105b611814576040517f08c379a000000000000000000000000000000000000000000000000000000000815260040180806020018281038252601d8152602001807f5f6c6576656c20706172616d6574657220697320696e636f727265637400000081525060200191505060405180910390fd5b6006600c60008373ffffffffffffffffffffffffffffffffffffffff1673ffffffffffffffffffffffffffffffffffffffff16815260200190815260200160002054106118c9576040517f08c379a00000000000000000000000000000000000000000000000000000000081526004018080602001828103825260198152602001807f7573657220616c726561647920686173203520746f6b656e730000000000000081525060200191505060405180910390fd5b600082905060008114156118e4576118e1600a6121f8565b90505b6118ef848284612396565b50505050565b606061190082611c5a565b611955576040517f08c379a000000000000000000000000000000000000000000000000000000000815260040180806020018281038252602f81526020018061356f602f913960400191505060405180910390fd5b6060600860008481526020019081526020016000208054600181600116156101000203166002900480601f0160208091040260200160405190810160405280929190818152602001828054600181600116156101000203166002900480156119fe5780601f106119d3576101008083540402835291602001916119fe565b820191906000526020600020905b8154815290600101906020018083116119e157829003601f168201915b505050505090506060611a0f61132c565b9050600081511415611a25578192505050611bc1565b600082511115611af65780826040516020018083805190602001908083835b60208310611a675780518252602082019150602081019050602083039250611a44565b6001836020036101000a03801982511681845116808217855250505050505090500182805190602001908083835b60208310611ab85780518252602082019150602081019050602083039250611a95565b6001836020036101000a0380198251168184511680821785525050505050509050019250505060405160208183030381529060405292505050611bc1565b80611b008561251e565b6040516020018083805190602001908083835b60208310611b365780518252602082019150602081019050602083039250611b13565b6001836020036101000a03801982511681845116808217855250505050505090500182805190602001908083835b60208310611b875780518252602082019150602081019050602083039250611b64565b6001836020036101000a03801982511681845116808217855250505050505090500192505050604051602081830303815290604052925050505b919050565b6000600560008473ffffffffffffffffffffffffffffffffffffffff1673ffffffffffffffffffffffffffffffffffffffff16815260200190815260200160002060008373ffffffffffffffffffffffffffffffffffffffff1673ffffffffffffffffffffffffffffffffffffffff16815260200190815260200160002060009054906101000a900460ff16905092915050565b6000611c7082600261266590919063ffffffff16565b9050919050565b600033905090565b816004600083815260200190815260200160002060006101000a81548173ffffffffffffffffffffffffffffffffffffffff021916908373ffffffffffffffffffffffffffffffffffffffff160217905550808273ffffffffffffffffffffffffffffffffffffffff16611cf2836112c2565b73ffffffffffffffffffffffffffffffffffffffff167f8c5be1e5ebec7d5bd14f71427d1e84f3dd0314c0f7b2291e5b200ac8c7c3b92560405160405180910390a45050565b6000611d468260000161267f565b9050919050565b6000611d5882611c5a565b611dad576040517f08c379a000000000000000000000000000000000000000000000000000000000815260040180806020018281038252602c815260200180613441602c913960400191505060405180910390fd5b6000611db8836112c2565b90508073ffffffffffffffffffffffffffffffffffffffff168473ffffffffffffffffffffffffffffffffffffffff161480611e2757508373ffffffffffffffffffffffffffffffffffffffff16611e0f84610c94565b73ffffffffffffffffffffffffffffffffffffffff16145b80611e385750611e378185611bc6565b5b91505092915050565b8273ffffffffffffffffffffffffffffffffffffffff16611e61826112c2565b73ffffffffffffffffffffffffffffffffffffffff1614611ecd576040517f08c379a00000000000000000000000000000000000000000000000000000000081526004018080602001828103825260298152602001806135466029913960400191505060405180910390fd5b600073ffffffffffffffffffffffffffffffffffffffff168273ffffffffffffffffffffffffffffffffffffffff161415611f53576040517f08c379a00000000000000000000000000000000000000000000000000000000081526004018080602001828103825260248152602001806133f76024913960400191505060405180910390fd5b611f5e838383612690565b611f69600082611c7f565b611fba81600160008673ffffffffffffffffffffffffffffffffffffffff1673ffffffffffffffffffffffffffffffffffffffff16815260200190815260200160002061269590919063ffffffff16565b5061200c81600160008573ffffffffffffffffffffffffffffffffffffffff1673ffffffffffffffffffffffffffffffffffffffff1681526020019081526020016000206126af90919063ffffffff16565b50612023818360026126c99092919063ffffffff16565b50808273ffffffffffffffffffffffffffffffffffffffff168473ffffffffffffffffffffffffffffffffffffffff167fddf252ad1be2c89b69c2b068fc378daa952ba7f163c4a11628f55a4df523b3ef60405160405180910390a4505050565b600061209383600001836126fe565b60001c905092915050565b6000806000806120b18660000186612781565b915091508160001c8160001c9350935050509250929050565b60006120d46132d0565b600a83815481106120e157fe5b90600052602060002090600502016040518060a0016040529081600082018054600181600116156101000203166002900480601f0160208091040260200160405190810160405280929190818152602001828054600181600116156101000203166002900480156121935780601f1061216857610100808354040283529160200191612193565b820191906000526020600020905b81548152906001019060200180831161217657829003601f168201915b505050505081526020016001820154815260200160028201548152602001600382015481526020016004820160009054906101000a900463ffffffff1663ffffffff1663ffffffff1681525050905042816080015163ffffffff161115915050919050565b600080424433604051602001808481526020018381526020018273ffffffffffffffffffffffffffffffffffffffff1660601b815260140193505050506040516020818303038152906040528051906020012060001c905082818161225957fe5b06915050919050565b61227a6001836002015461281a90919063ffffffff16565b826002018190555061229a6001836001015461281a90919063ffffffff16565b82600101819055506122ba6001826003015461281a90919063ffffffff16565b81600301819055505050565b600d5442018160040160006101000a81548163ffffffff021916908363ffffffff16021790555050565b6000612303846000018460001b846128a2565b60001c90509392505050565b600061231d82600001612998565b9050919050565b61232f848484611e41565b61233b848484846129a9565b612390576040517f08c379a00000000000000000000000000000000000000000000000000000000081526004018080602001828103825260328152602001806133c56032913960400191505060405180910390fd5b50505050565b61239e6132d0565b6040518060a0016040528085815260200184815260200160008152602001600081526020014263ffffffff168152509050600a8190806001815401808255809150506001900390600052602060002090600502016000909190919091506000820151816000019080519060200190612417929190613305565b5060208201518160010155604082015181600201556060820151816003015560808201518160040160006101000a81548163ffffffff021916908363ffffffff160217905550505060006001600a8054905003905082600b600083815260200190815260200160002060006101000a81548173ffffffffffffffffffffffffffffffffffffffff021916908373ffffffffffffffffffffffffffffffffffffffff160217905550600c60008473ffffffffffffffffffffffffffffffffffffffff1673ffffffffffffffffffffffffffffffffffffffff168152602001908152602001600020600081548092919060010191905055506125178382612bc2565b5050505050565b60606000821415612566576040518060400160405280600181526020017f30000000000000000000000000000000000000000000000000000000000000008152509050612660565b600082905060005b60008214612590578080600101915050600a828161258857fe5b04915061256e565b60608167ffffffffffffffff811180156125a957600080fd5b506040519080825280601f01601f1916602001820160405280156125dc5781602001600182028036833780820191505090505b50905060006001830390508593505b6000841461265857600a84816125fd57fe5b0660300160f81b8282806001900393508151811061261757fe5b60200101907effffffffffffffffffffffffffffffffffffffffffffffffffffffffffffff1916908160001a905350600a848161265057fe5b0493506125eb565b819450505050505b919050565b6000612677836000018360001b612db6565b905092915050565b600081600001805490509050919050565b505050565b60006126a7836000018360001b612dd9565b905092915050565b60006126c1836000018360001b612ec1565b905092915050565b60006126f5846000018460001b8473ffffffffffffffffffffffffffffffffffffffff1660001b612f31565b90509392505050565b60008183600001805490501161275f576040517f08c379a00000000000000000000000000000000000000000000000000000000081526004018080602001828103825260228152602001806133a36022913960400191505060405180910390fd5b82600001828154811061276e57fe5b9060005260206000200154905092915050565b600080828460000180549050116127e3576040517f08c379a00000000000000000000000000000000000000000000000000000000081526004018080602001828103825260228152602001806134f86022913960400191505060405180910390fd5b60008460000184815481106127f457fe5b906000526020600020906002020190508060000154816001015492509250509250929050565b600080828401905083811015612898576040517f08c379a000000000000000000000000000000000000000000000000000000000815260040180806020018281038252601b8152602001807f536166654d6174683a206164646974696f6e206f766572666c6f77000000000081525060200191505060405180910390fd5b8091505092915050565b60008084600101600085815260200190815260200160002054905060008114158390612969576040517f08c379a00000000000000000000000000000000000000000000000000000000081526004018080602001828103825283818151815260200191508051906020019080838360005b8381101561292e578082015181840152602081019050612913565b50505050905090810190601f16801561295b5780820380516001836020036101000a031916815260200191505b509250505060405180910390fd5b5084600001600182038154811061297c57fe5b9060005260206000209060020201600101549150509392505050565b600081600001805490509050919050565b60006129ca8473ffffffffffffffffffffffffffffffffffffffff1661300d565b6129d75760019050612bba565b6060612b4163150b7a0260e01b6129ec611c77565b888787604051602401808573ffffffffffffffffffffffffffffffffffffffff1681526020018473ffffffffffffffffffffffffffffffffffffffff16815260200183815260200180602001828103825283818151815260200191508051906020019080838360005b83811015612a70578082015181840152602081019050612a55565b50505050905090810190601f168015612a9d5780820380516001836020036101000a031916815260200191505b5095505050505050604051602081830303815290604052907bffffffffffffffffffffffffffffffffffffffffffffffffffffffff19166020820180517bffffffffffffffffffffffffffffffffffffffffffffffffffffffff83818316178352505050506040518060600160405280603281526020016133c5603291398773ffffffffffffffffffffffffffffffffffffffff166130209092919063ffffffff16565b90506000818060200190516020811015612b5a57600080fd5b8101908080519060200190929190505050905063150b7a0260e01b7bffffffffffffffffffffffffffffffffffffffffffffffffffffffff1916817bffffffffffffffffffffffffffffffffffffffffffffffffffffffff191614925050505b949350505050565b600073ffffffffffffffffffffffffffffffffffffffff168273ffffffffffffffffffffffffffffffffffffffff161415612c65576040517f08c379a00000000000000000000000000000000000000000000000000000000081526004018080602001828103825260208152602001807f4552433732313a206d696e7420746f20746865207a65726f206164647265737381525060200191505060405180910390fd5b612c6e81611c5a565b15612ce1576040517f08c379a000000000000000000000000000000000000000000000000000000000815260040180806020018281038252601c8152602001807f4552433732313a20746f6b656e20616c7265616479206d696e7465640000000081525060200191505060405180910390fd5b612ced60008383612690565b612d3e81600160008573ffffffffffffffffffffffffffffffffffffffff1673ffffffffffffffffffffffffffffffffffffffff1681526020019081526020016000206126af90919063ffffffff16565b50612d55818360026126c99092919063ffffffff16565b50808273ffffffffffffffffffffffffffffffffffffffff16600073ffffffffffffffffffffffffffffffffffffffff167fddf252ad1be2c89b69c2b068fc378daa952ba7f163c4a11628f55a4df523b3ef60405160405180910390a45050565b600080836001016000848152602001908152602001600020541415905092915050565b60008083600101600084815260200190815260200160002054905060008114612eb55760006001820390506000600186600001805490500390506000866000018281548110612e2457fe5b9060005260206000200154905080876000018481548110612e4157fe5b9060005260206000200181905550600183018760010160008381526020019081526020016000208190555086600001805480612e7957fe5b60019003818190600052602060002001600090559055866001016000878152602001908152602001600020600090556001945050505050612ebb565b60009150505b92915050565b6000612ecd8383613038565b612f26578260000182908060018154018082558091505060019003906000526020600020016000909190919091505582600001805490508360010160008481526020019081526020016000208190555060019050612f2b565b600090505b92915050565b6000808460010160008581526020019081526020016000205490506000811415612fd857846000016040518060400160405280868152602001858152509080600181540180825580915050600190039060005260206000209060020201600090919091909150600082015181600001556020820151816001015550508460000180549050856001016000868152602001908152602001600020819055506001915050613006565b82856000016001830381548110612feb57fe5b90600052602060002090600202016001018190555060009150505b9392505050565b600080823b905060008111915050919050565b606061302f848460008561305b565b90509392505050565b600080836001016000848152602001908152602001600020541415905092915050565b6060824710156130b6576040517f08c379a000000000000000000000000000000000000000000000000000000000815260040180806020018281038252602681526020018061341b6026913960400191505060405180910390fd5b6130bf8561300d565b613131576040517f08c379a000000000000000000000000000000000000000000000000000000000815260040180806020018281038252601d8152602001807f416464726573733a2063616c6c20746f206e6f6e2d636f6e747261637400000081525060200191505060405180910390fd5b600060608673ffffffffffffffffffffffffffffffffffffffff1685876040518082805190602001908083835b60208310613181578051825260208201915060208101905060208303925061315e565b6001836020036101000a03801982511681845116808217855250505050505090500191505060006040518083038185875af1925050503d80600081146131e3576040519150601f19603f3d011682016040523d82523d6000602084013e6131e8565b606091505b50915091506131f8828286613204565b92505050949350505050565b60608315613214578290506132c9565b6000835111156132275782518084602001fd5b816040517f08c379a00000000000000000000000000000000000000000000000000000000081526004018080602001828103825283818151815260200191508051906020019080838360005b8381101561328e578082015181840152602081019050613273565b50505050905090810190601f1680156132bb5780820380516001836020036101000a031916815260200191505b509250505060405180910390fd5b9392505050565b6040518060a0016040528060608152602001600081526020016000815260200160008152602001600063ffffffff1681525090565b828054600181600116156101000203166002900490600052602060002090601f016020900481019282601f1061334657805160ff1916838001178555613374565b82800160010185558215613374579182015b82811115613373578251825591602001919060010190613358565b5b5090506133819190613385565b5090565b5b8082111561339e576000816000905550600101613386565b509056fe456e756d657261626c655365743a20696e646578206f7574206f6620626f756e64734552433732313a207472616e7366657220746f206e6f6e20455243373231526563656976657220696d706c656d656e7465724552433732313a207472616e7366657220746f20746865207a65726f2061646472657373416464726573733a20696e73756666696369656e742062616c616e636520666f722063616c6c4552433732313a206f70657261746f7220717565727920666f72206e6f6e6578697374656e7420746f6b656e4552433732313a20617070726f76652063616c6c6572206973206e6f74206f776e6572206e6f7220617070726f76656420666f7220616c6c4552433732313a2062616c616e636520717565727920666f7220746865207a65726f20616464726573734552433732313a206f776e657220717565727920666f72206e6f6e6578697374656e7420746f6b656e456e756d657261626c654d61703a20696e646578206f7574206f6620626f756e64734552433732313a20617070726f76656420717565727920666f72206e6f6e6578697374656e7420746f6b656e4552433732313a207472616e73666572206f6620746f6b656e2074686174206973206e6f74206f776e4552433732314d657461646174613a2055524920717565727920666f72206e6f6e6578697374656e7420746f6b656e4552433732313a20617070726f76616c20746f2063757272656e74206f776e65724552433732313a207472616e736665722063616c6c6572206973206e6f74206f776e6572206e6f7220617070726f766564a26469706673582212201596f6a35fedc005da565efbead743d5b3ed567f2b44964647084f3ff311496064736f6c634300060c0033",
  "immutableReferences": {},
  "source": "// SPDX-License-Identifier: UNLICENSED\r\n\r\npragma solidity ^0.6.12;\r\n\r\nimport \"./VirusFactory.sol\";\r\n\r\ncontract VirusInfect is VirusFactory {\r\n\r\n    event Winner(uint tokenId);\r\n\r\n    uint public cooldownPeriod = 1 minutes;\r\n    uint public requiredToWin = 6;\r\n\r\n    function infect(uint _virusId, uint _enemyId) external onlyOwnerOf(_virusId) {\r\n        require(_isReady(_virusId), \"virus is still in cooldown\");\r\n        CryptoVirus storage myVirus = viruses[_virusId];\r\n        CryptoVirus storage enemyVirus = viruses[_enemyId];\r\n\r\n        uint chanceToWin = _generateNumber(10);\r\n        if(chanceToWin > requiredToWin) {\r\n            _calculateWinsAndLosses(myVirus, enemyVirus);\r\n            emit Winner (_virusId);\r\n        }\r\n        else {\r\n            _calculateWinsAndLosses(enemyVirus, myVirus);\r\n            emit Winner(_enemyId);\r\n        }\r\n        _activeCooldown(myVirus);\r\n    }\r\n\r\n   function _isReady(uint _virusId) internal view returns (bool) {\r\n       CryptoVirus memory tempVirus = viruses[_virusId];\r\n       return tempVirus.cooldown <= now;\r\n   }\r\n\r\n   function _calculateWinsAndLosses(CryptoVirus storage _winner, CryptoVirus storage _loser) internal {\r\n    _winner.wins = _winner.wins.add(1);\r\n    _winner.level = _winner.level.add(1);\r\n    _loser.losses = _loser.losses.add(1);\r\n   }\r\n\r\n    function _activeCooldown(CryptoVirus storage _virus) internal {\r\n        _virus.cooldown = uint32(now + cooldownPeriod);\r\n    }\r\n\r\n}",
  "sourcePath": "C:/Development/blockgeeks/nftgame/contracts/VirusInfect.sol",
  "compiler": {
    "name": "solc",
    "version": "0.6.12+commit.27d51765.Emscripten.clang"
  },
  "schemaVersion": "3.3.4",
  "updatedAt": "2021-03-22T16:51:51.513Z",
  "devdoc": {
    "kind": "dev",
    "methods": {
      "approve(address,uint256)": {
        "details": "See {IERC721-approve}."
      },
      "balanceOf(address)": {
        "details": "See {IERC721-balanceOf}."
      },
      "baseURI()": {
        "details": "Returns the base URI set via {_setBaseURI}. This will be automatically added as a prefix in {tokenURI} to each token's URI, or to the token ID if no specific URI is set for that token ID."
      },
      "getApproved(uint256)": {
        "details": "See {IERC721-getApproved}."
      },
      "isApprovedForAll(address,address)": {
        "details": "See {IERC721-isApprovedForAll}."
      },
      "name()": {
        "details": "See {IERC721Metadata-name}."
      },
      "ownerOf(uint256)": {
        "details": "See {IERC721-ownerOf}."
      },
      "safeTransferFrom(address,address,uint256)": {
        "details": "See {IERC721-safeTransferFrom}."
      },
      "safeTransferFrom(address,address,uint256,bytes)": {
        "details": "See {IERC721-safeTransferFrom}."
      },
      "setApprovalForAll(address,bool)": {
        "details": "See {IERC721-setApprovalForAll}."
      },
      "supportsInterface(bytes4)": {
        "details": "See {IERC165-supportsInterface}. Time complexity O(1), guaranteed to always use less than 30 000 gas."
      },
      "symbol()": {
        "details": "See {IERC721Metadata-symbol}."
      },
      "tokenByIndex(uint256)": {
        "details": "See {IERC721Enumerable-tokenByIndex}."
      },
      "tokenOfOwnerByIndex(address,uint256)": {
        "details": "See {IERC721Enumerable-tokenOfOwnerByIndex}."
      },
      "tokenURI(uint256)": {
        "details": "See {IERC721Metadata-tokenURI}."
      },
      "totalSupply()": {
        "details": "See {IERC721Enumerable-totalSupply}."
      },
      "transferFrom(address,address,uint256)": {
        "details": "See {IERC721-transferFrom}."
      }
    },
    "version": 1
  },
  "userdoc": {
    "kind": "user",
    "methods": {},
    "version": 1
  }
}