{
  "contractName": "VirusFactory",
  "abi": [
    {
      "anonymous": false,
      "inputs": [
        {
          "indexed": true,
          "internalType": "address",
          "name": "owner",
          "type": "address"
        },
        {
          "indexed": true,
          "internalType": "address",
          "name": "approved",
          "type": "address"
        },
        {
          "indexed": true,
          "internalType": "uint256",
          "name": "tokenId",
          "type": "uint256"
        }
      ],
      "name": "Approval",
      "type": "event"
    },
    {
      "anonymous": false,
      "inputs": [
        {
          "indexed": true,
          "internalType": "address",
          "name": "owner",
          "type": "address"
        },
        {
          "indexed": true,
          "internalType": "address",
          "name": "operator",
          "type": "address"
        },
        {
          "indexed": false,
          "internalType": "bool",
          "name": "approved",
          "type": "bool"
        }
      ],
      "name": "ApprovalForAll",
      "type": "event"
    },
    {
      "anonymous": false,
      "inputs": [
        {
          "indexed": true,
          "internalType": "address",
          "name": "from",
          "type": "address"
        },
        {
          "indexed": true,
          "internalType": "address",
          "name": "to",
          "type": "address"
        },
        {
          "indexed": true,
          "internalType": "uint256",
          "name": "tokenId",
          "type": "uint256"
        }
      ],
      "name": "Transfer",
      "type": "event"
    },
    {
      "inputs": [
        {
          "internalType": "address",
          "name": "to",
          "type": "address"
        },
        {
          "internalType": "uint256",
          "name": "tokenId",
          "type": "uint256"
        }
      ],
      "name": "approve",
      "outputs": [],
      "stateMutability": "nonpayable",
      "type": "function"
    },
    {
      "inputs": [
        {
          "internalType": "address",
          "name": "owner",
          "type": "address"
        }
      ],
      "name": "balanceOf",
      "outputs": [
        {
          "internalType": "uint256",
          "name": "",
          "type": "uint256"
        }
      ],
      "stateMutability": "view",
      "type": "function"
    },
    {
      "inputs": [],
      "name": "baseURI",
      "outputs": [
        {
          "internalType": "string",
          "name": "",
          "type": "string"
        }
      ],
      "stateMutability": "view",
      "type": "function"
    },
    {
      "inputs": [
        {
          "internalType": "uint256",
          "name": "tokenId",
          "type": "uint256"
        }
      ],
      "name": "getApproved",
      "outputs": [
        {
          "internalType": "address",
          "name": "",
          "type": "address"
        }
      ],
      "stateMutability": "view",
      "type": "function"
    },
    {
      "inputs": [
        {
          "internalType": "address",
          "name": "owner",
          "type": "address"
        },
        {
          "internalType": "address",
          "name": "operator",
          "type": "address"
        }
      ],
      "name": "isApprovedForAll",
      "outputs": [
        {
          "internalType": "bool",
          "name": "",
          "type": "bool"
        }
      ],
      "stateMutability": "view",
      "type": "function"
    },
    {
      "inputs": [],
      "name": "name",
      "outputs": [
        {
          "internalType": "string",
          "name": "",
          "type": "string"
        }
      ],
      "stateMutability": "view",
      "type": "function"
    },
    {
      "inputs": [
        {
          "internalType": "uint256",
          "name": "tokenId",
          "type": "uint256"
        }
      ],
      "name": "ownerOf",
      "outputs": [
        {
          "internalType": "address",
          "name": "",
          "type": "address"
        }
      ],
      "stateMutability": "view",
      "type": "function"
    },
    {
      "inputs": [
        {
          "internalType": "address",
          "name": "",
          "type": "address"
        }
      ],
      "name": "ownerVirusCount",
      "outputs": [
        {
          "internalType": "uint256",
          "name": "",
          "type": "uint256"
        }
      ],
      "stateMutability": "view",
      "type": "function"
    },
    {
      "inputs": [
        {
          "internalType": "address",
          "name": "operator",
          "type": "address"
        },
        {
          "internalType": "bool",
          "name": "approved",
          "type": "bool"
        }
      ],
      "name": "setApprovalForAll",
      "outputs": [],
      "stateMutability": "nonpayable",
      "type": "function"
    },
    {
      "inputs": [
        {
          "internalType": "bytes4",
          "name": "interfaceId",
          "type": "bytes4"
        }
      ],
      "name": "supportsInterface",
      "outputs": [
        {
          "internalType": "bool",
          "name": "",
          "type": "bool"
        }
      ],
      "stateMutability": "view",
      "type": "function"
    },
    {
      "inputs": [],
      "name": "symbol",
      "outputs": [
        {
          "internalType": "string",
          "name": "",
          "type": "string"
        }
      ],
      "stateMutability": "view",
      "type": "function"
    },
    {
      "inputs": [
        {
          "internalType": "uint256",
          "name": "index",
          "type": "uint256"
        }
      ],
      "name": "tokenByIndex",
      "outputs": [
        {
          "internalType": "uint256",
          "name": "",
          "type": "uint256"
        }
      ],
      "stateMutability": "view",
      "type": "function"
    },
    {
      "inputs": [
        {
          "internalType": "address",
          "name": "owner",
          "type": "address"
        },
        {
          "internalType": "uint256",
          "name": "index",
          "type": "uint256"
        }
      ],
      "name": "tokenOfOwnerByIndex",
      "outputs": [
        {
          "internalType": "uint256",
          "name": "",
          "type": "uint256"
        }
      ],
      "stateMutability": "view",
      "type": "function"
    },
    {
      "inputs": [
        {
          "internalType": "uint256",
          "name": "tokenId",
          "type": "uint256"
        }
      ],
      "name": "tokenURI",
      "outputs": [
        {
          "internalType": "string",
          "name": "",
          "type": "string"
        }
      ],
      "stateMutability": "view",
      "type": "function"
    },
    {
      "inputs": [],
      "name": "totalSupply",
      "outputs": [
        {
          "internalType": "uint256",
          "name": "",
          "type": "uint256"
        }
      ],
      "stateMutability": "view",
      "type": "function"
    },
    {
      "inputs": [
        {
          "internalType": "address",
          "name": "from",
          "type": "address"
        },
        {
          "internalType": "address",
          "name": "to",
          "type": "address"
        },
        {
          "internalType": "uint256",
          "name": "tokenId",
          "type": "uint256"
        }
      ],
      "name": "transferFrom",
      "outputs": [],
      "stateMutability": "nonpayable",
      "type": "function"
    },
    {
      "inputs": [
        {
          "internalType": "uint256",
          "name": "",
          "type": "uint256"
        }
      ],
      "name": "virusToOwner",
      "outputs": [
        {
          "internalType": "address",
          "name": "",
          "type": "address"
        }
      ],
      "stateMutability": "view",
      "type": "function"
    },
    {
      "inputs": [
        {
          "internalType": "uint256",
          "name": "",
          "type": "uint256"
        }
      ],
      "name": "viruses",
      "outputs": [
        {
          "internalType": "string",
          "name": "name",
          "type": "string"
        },
        {
          "internalType": "uint256",
          "name": "level",
          "type": "uint256"
        },
        {
          "internalType": "uint256",
          "name": "wins",
          "type": "uint256"
        },
        {
          "internalType": "uint256",
          "name": "losses",
          "type": "uint256"
        },
        {
          "internalType": "uint32",
          "name": "cooldown",
          "type": "uint32"
        }
      ],
      "stateMutability": "view",
      "type": "function"
    },
    {
      "inputs": [
        {
          "internalType": "string",
          "name": "_name",
          "type": "string"
        },
        {
          "internalType": "uint256",
          "name": "_level",
          "type": "uint256"
        },
        {
          "internalType": "address",
          "name": "_newOwner",
          "type": "address"
        }
      ],
      "name": "mintVirus",
      "outputs": [],
      "stateMutability": "nonpayable",
      "type": "function"
    },
    {
      "inputs": [
        {
          "internalType": "address",
          "name": "_from",
          "type": "address"
        },
        {
          "internalType": "address",
          "name": "_to",
          "type": "address"
        },
        {
          "internalType": "uint256",
          "name": "_virusId",
          "type": "uint256"
        }
      ],
      "name": "safeTransferFrom",
      "outputs": [],
      "stateMutability": "nonpayable",
      "type": "function"
    },
    {
      "inputs": [
        {
          "internalType": "address",
          "name": "from",
          "type": "address"
        },
        {
          "internalType": "address",
          "name": "to",
          "type": "address"
        },
        {
          "internalType": "uint256",
          "name": "tokenId",
          "type": "uint256"
        },
        {
          "internalType": "bytes",
          "name": "_data",
          "type": "bytes"
        }
      ],
      "name": "safeTransferFrom",
      "outputs": [],
      "stateMutability": "nonpayable",
      "type": "function"
    }
  ],
  "bytecode": "0x60806040523480156200001157600080fd5b506040518060400160405280600b81526020017f43727970746f56697275730000000000000000000000000000000000000000008152506040518060400160405280600581526020017f5669727573000000000000000000000000000000000000000000000000000000815250620000966301ffc9a760e01b6200011860201b60201c565b8160069080519060200190620000ae92919062000221565b508060079080519060200190620000c792919062000221565b50620000e06380ac58cd60e01b6200011860201b60201c565b620000f8635b5e139f60e01b6200011860201b60201c565b6200011063780e9d6360e01b6200011860201b60201c565b5050620002c7565b63ffffffff60e01b817bffffffffffffffffffffffffffffffffffffffffffffffffffffffff19161415620001b5576040517f08c379a000000000000000000000000000000000000000000000000000000000815260040180806020018281038252601c8152602001807f4552433136353a20696e76616c696420696e746572666163652069640000000081525060200191505060405180910390fd5b6001600080837bffffffffffffffffffffffffffffffffffffffffffffffffffffffff19167bffffffffffffffffffffffffffffffffffffffffffffffffffffffff1916815260200190815260200160002060006101000a81548160ff02191690831515021790555050565b828054600181600116156101000203166002900490600052602060002090601f016020900481019282601f106200026457805160ff191683800117855562000295565b8280016001018555821562000295579182015b828111156200029457825182559160200191906001019062000277565b5b509050620002a49190620002a8565b5090565b5b80821115620002c3576000816000905550600101620002a9565b5090565b61348280620002d76000396000f3fe608060405234801561001057600080fd5b50600436106101375760003560e01c80636352211e116100b857806395d89b411161007c57806395d89b4114610712578063a22cb46514610795578063b88d4fde146107e5578063bfe4ff09146108ea578063c87b56dd146109cf578063e985e9c514610a7657610137565b80636352211e1461052f5780636862f03d146105875780636c0360eb146105df57806370a0823114610662578063914a345a146106ba57610137565b80631bb57b96116100ff5780631bb57b96146102e657806323b872dd146103af5780632f745c591461041d57806342842e0e1461047f5780634f6ccce7146104ed57610137565b806301ffc9a71461013c57806306fdde031461019f578063081812fc14610222578063095ea7b31461027a57806318160ddd146102c8575b600080fd5b6101876004803603602081101561015257600080fd5b8101908080357bffffffffffffffffffffffffffffffffffffffffffffffffffffffff19169060200190929190505050610af0565b60405180821515815260200191505060405180910390f35b6101a7610b57565b6040518080602001828103825283818151815260200191508051906020019080838360005b838110156101e75780820151818401526020810190506101cc565b50505050905090810190601f1680156102145780820380516001836020036101000a031916815260200191505b509250505060405180910390f35b61024e6004803603602081101561023857600080fd5b8101908080359060200190929190505050610bf9565b604051808273ffffffffffffffffffffffffffffffffffffffff16815260200191505060405180910390f35b6102c66004803603604081101561029057600080fd5b81019080803573ffffffffffffffffffffffffffffffffffffffff16906020019092919080359060200190929190505050610c94565b005b6102d0610dd8565b6040518082815260200191505060405180910390f35b610312600480360360208110156102fc57600080fd5b8101908080359060200190929190505050610de9565b60405180806020018681526020018581526020018481526020018363ffffffff168152602001828103825287818151815260200191508051906020019080838360005b83811015610370578082015181840152602081019050610355565b50505050905090810190601f16801561039d5780820380516001836020036101000a031916815260200191505b50965050505050505060405180910390f35b61041b600480360360608110156103c557600080fd5b81019080803573ffffffffffffffffffffffffffffffffffffffff169060200190929190803573ffffffffffffffffffffffffffffffffffffffff16906020019092919080359060200190929190505050610ed4565b005b6104696004803603604081101561043357600080fd5b81019080803573ffffffffffffffffffffffffffffffffffffffff16906020019092919080359060200190929190505050610f4a565b6040518082815260200191505060405180910390f35b6104eb6004803603606081101561049557600080fd5b81019080803573ffffffffffffffffffffffffffffffffffffffff169060200190929190803573ffffffffffffffffffffffffffffffffffffffff16906020019092919080359060200190929190505050610fa5565b005b6105196004803603602081101561050357600080fd5b810190808035906020019092919050505061121b565b6040518082815260200191505060405180910390f35b61055b6004803603602081101561054557600080fd5b810190808035906020019092919050505061123e565b604051808273ffffffffffffffffffffffffffffffffffffffff16815260200191505060405180910390f35b6105b36004803603602081101561059d57600080fd5b8101908080359060200190929190505050611275565b604051808273ffffffffffffffffffffffffffffffffffffffff16815260200191505060405180910390f35b6105e76112a8565b6040518080602001828103825283818151815260200191508051906020019080838360005b8381101561062757808201518184015260208101905061060c565b50505050905090810190601f1680156106545780820380516001836020036101000a031916815260200191505b509250505060405180910390f35b6106a46004803603602081101561067857600080fd5b81019080803573ffffffffffffffffffffffffffffffffffffffff16906020019092919050505061134a565b6040518082815260200191505060405180910390f35b6106fc600480360360208110156106d057600080fd5b81019080803573ffffffffffffffffffffffffffffffffffffffff16906020019092919050505061141f565b6040518082815260200191505060405180910390f35b61071a611437565b6040518080602001828103825283818151815260200191508051906020019080838360005b8381101561075a57808201518184015260208101905061073f565b50505050905090810190601f1680156107875780820380516001836020036101000a031916815260200191505b509250505060405180910390f35b6107e3600480360360408110156107ab57600080fd5b81019080803573ffffffffffffffffffffffffffffffffffffffff1690602001909291908035151590602001909291905050506114d9565b005b6108e8600480360360808110156107fb57600080fd5b81019080803573ffffffffffffffffffffffffffffffffffffffff169060200190929190803573ffffffffffffffffffffffffffffffffffffffff169060200190929190803590602001909291908035906020019064010000000081111561086257600080fd5b82018360208201111561087457600080fd5b8035906020019184600183028401116401000000008311171561089657600080fd5b91908080601f016020809104026020016040519081016040528093929190818152602001838380828437600081840152601f19601f82011690508083019250505050505050919291929050505061168f565b005b6109cd6004803603606081101561090057600080fd5b810190808035906020019064010000000081111561091d57600080fd5b82018360208201111561092f57600080fd5b8035906020019184600183028401116401000000008311171561095157600080fd5b91908080601f016020809104026020016040519081016040528093929190818152602001838380828437600081840152601f19601f82011690508083019250505050505050919291929080359060200190929190803573ffffffffffffffffffffffffffffffffffffffff169060200190929190505050611707565b005b6109fb600480360360208110156109e557600080fd5b810190808035906020019092919050505061186b565b6040518080602001828103825283818151815260200191508051906020019080838360005b83811015610a3b578082015181840152602081019050610a20565b50505050905090810190601f168015610a685780820380516001836020036101000a031916815260200191505b509250505060405180910390f35b610ad860048036036040811015610a8c57600080fd5b81019080803573ffffffffffffffffffffffffffffffffffffffff169060200190929190803573ffffffffffffffffffffffffffffffffffffffff169060200190929190505050611b3c565b60405180821515815260200191505060405180910390f35b6000806000837bffffffffffffffffffffffffffffffffffffffffffffffffffffffff19167bffffffffffffffffffffffffffffffffffffffffffffffffffffffff1916815260200190815260200160002060009054906101000a900460ff169050919050565b606060068054600181600116156101000203166002900480601f016020809104026020016040519081016040528092919081815260200182805460018160011615610100020316600290048015610bef5780601f10610bc457610100808354040283529160200191610bef565b820191906000526020600020905b815481529060010190602001808311610bd257829003601f168201915b5050505050905090565b6000610c0482611bd0565b610c59576040517f08c379a000000000000000000000000000000000000000000000000000000000815260040180806020018281038252602c815260200180613377602c913960400191505060405180910390fd5b6004600083815260200190815260200160002060009054906101000a900473ffffffffffffffffffffffffffffffffffffffff169050919050565b6000610c9f8261123e565b90508073ffffffffffffffffffffffffffffffffffffffff168373ffffffffffffffffffffffffffffffffffffffff161415610d26576040517f08c379a00000000000000000000000000000000000000000000000000000000081526004018080602001828103825260218152602001806133fb6021913960400191505060405180910390fd5b8073ffffffffffffffffffffffffffffffffffffffff16610d45611bed565b73ffffffffffffffffffffffffffffffffffffffff161480610d745750610d7381610d6e611bed565b611b3c565b5b610dc9576040517f08c379a00000000000000000000000000000000000000000000000000000000081526004018080602001828103825260388152602001806132ca6038913960400191505060405180910390fd5b610dd38383611bf5565b505050565b6000610de46002611cae565b905090565b600a8181548110610df657fe5b9060005260206000209060050201600091509050806000018054600181600116156101000203166002900480601f016020809104026020016040519081016040528092919081815260200182805460018160011615610100020316600290048015610ea25780601f10610e7757610100808354040283529160200191610ea2565b820191906000526020600020905b815481529060010190602001808311610e8557829003601f168201915b5050505050908060010154908060020154908060030154908060040160009054906101000a900463ffffffff16905085565b610ee5610edf611bed565b82611cc3565b610f3a576040517f08c379a000000000000000000000000000000000000000000000000000000000815260040180806020018281038252603181526020018061341c6031913960400191505060405180910390fd5b610f45838383611db7565b505050565b6000610f9d82600160008673ffffffffffffffffffffffffffffffffffffffff1673ffffffffffffffffffffffffffffffffffffffff168152602001908152602001600020611ffa90919063ffffffff16565b905092915050565b803373ffffffffffffffffffffffffffffffffffffffff16600b600083815260200190815260200160002060009054906101000a900473ffffffffffffffffffffffffffffffffffffffff1673ffffffffffffffffffffffffffffffffffffffff161461107a576040517f08c379a000000000000000000000000000000000000000000000000000000000815260040180806020018281038252601b8152602001807f6d73672e73656e646572206973206e6f7420746865206f776e6572000000000081525060200191505060405180910390fd5b61108382611bd0565b61108c57600080fd5b6110df6001600c60008773ffffffffffffffffffffffffffffffffffffffff1673ffffffffffffffffffffffffffffffffffffffff1681526020019081526020016000205461201490919063ffffffff16565b600c60008673ffffffffffffffffffffffffffffffffffffffff1673ffffffffffffffffffffffffffffffffffffffff168152602001908152602001600020819055506111756001600c60008673ffffffffffffffffffffffffffffffffffffffff1673ffffffffffffffffffffffffffffffffffffffff1681526020019081526020016000205461209790919063ffffffff16565b600c60008573ffffffffffffffffffffffffffffffffffffffff1673ffffffffffffffffffffffffffffffffffffffff1681526020019081526020016000208190555082600b600084815260200190815260200160002060006101000a81548173ffffffffffffffffffffffffffffffffffffffff021916908373ffffffffffffffffffffffffffffffffffffffff16021790555061121584848461211f565b50505050565b60008061123283600261213f90919063ffffffff16565b50905080915050919050565b600061126e8260405180606001604052806029815260200161332c60299139600261216b9092919063ffffffff16565b9050919050565b600b6020528060005260406000206000915054906101000a900473ffffffffffffffffffffffffffffffffffffffff1681565b606060098054600181600116156101000203166002900480601f0160208091040260200160405190810160405280929190818152602001828054600181600116156101000203166002900480156113405780601f1061131557610100808354040283529160200191611340565b820191906000526020600020905b81548152906001019060200180831161132357829003601f168201915b5050505050905090565b60008073ffffffffffffffffffffffffffffffffffffffff168273ffffffffffffffffffffffffffffffffffffffff1614156113d1576040517f08c379a000000000000000000000000000000000000000000000000000000000815260040180806020018281038252602a815260200180613302602a913960400191505060405180910390fd5b611418600160008473ffffffffffffffffffffffffffffffffffffffff1673ffffffffffffffffffffffffffffffffffffffff16815260200190815260200160002061218a565b9050919050565b600c6020528060005260406000206000915090505481565b606060078054600181600116156101000203166002900480601f0160208091040260200160405190810160405280929190818152602001828054600181600116156101000203166002900480156114cf5780601f106114a4576101008083540402835291602001916114cf565b820191906000526020600020905b8154815290600101906020018083116114b257829003601f168201915b5050505050905090565b6114e1611bed565b73ffffffffffffffffffffffffffffffffffffffff168273ffffffffffffffffffffffffffffffffffffffff161415611582576040517f08c379a00000000000000000000000000000000000000000000000000000000081526004018080602001828103825260198152602001807f4552433732313a20617070726f766520746f2063616c6c65720000000000000081525060200191505060405180910390fd5b806005600061158f611bed565b73ffffffffffffffffffffffffffffffffffffffff1673ffffffffffffffffffffffffffffffffffffffff16815260200190815260200160002060008473ffffffffffffffffffffffffffffffffffffffff1673ffffffffffffffffffffffffffffffffffffffff16815260200190815260200160002060006101000a81548160ff0219169083151502179055508173ffffffffffffffffffffffffffffffffffffffff1661163c611bed565b73ffffffffffffffffffffffffffffffffffffffff167f17307eab39ab6107e8899845ad3d59bd9653f200f220920489ca2b5937696c318360405180821515815260200191505060405180910390a35050565b6116a061169a611bed565b83611cc3565b6116f5576040517f08c379a000000000000000000000000000000000000000000000000000000000815260040180806020018281038252603181526020018061341c6031913960400191505060405180910390fd5b6117018484848461219f565b50505050565b600082101580156117185750600a82105b61178a576040517f08c379a000000000000000000000000000000000000000000000000000000000815260040180806020018281038252601d8152602001807f5f6c6576656c20706172616d6574657220697320696e636f727265637400000081525060200191505060405180910390fd5b6006600c60008373ffffffffffffffffffffffffffffffffffffffff1673ffffffffffffffffffffffffffffffffffffffff168152602001908152602001600020541061183f576040517f08c379a00000000000000000000000000000000000000000000000000000000081526004018080602001828103825260198152602001807f7573657220616c726561647920686173203520746f6b656e730000000000000081525060200191505060405180910390fd5b6000829050600081141561185a57611857600a612211565b90505b61186584828461227b565b50505050565b606061187682611bd0565b6118cb576040517f08c379a000000000000000000000000000000000000000000000000000000000815260040180806020018281038252602f8152602001806133cc602f913960400191505060405180910390fd5b6060600860008481526020019081526020016000208054600181600116156101000203166002900480601f0160208091040260200160405190810160405280929190818152602001828054600181600116156101000203166002900480156119745780601f1061194957610100808354040283529160200191611974565b820191906000526020600020905b81548152906001019060200180831161195757829003601f168201915b5050505050905060606119856112a8565b905060008151141561199b578192505050611b37565b600082511115611a6c5780826040516020018083805190602001908083835b602083106119dd57805182526020820191506020810190506020830392506119ba565b6001836020036101000a03801982511681845116808217855250505050505090500182805190602001908083835b60208310611a2e5780518252602082019150602081019050602083039250611a0b565b6001836020036101000a0380198251168184511680821785525050505050509050019250505060405160208183030381529060405292505050611b37565b80611a7685612403565b6040516020018083805190602001908083835b60208310611aac5780518252602082019150602081019050602083039250611a89565b6001836020036101000a03801982511681845116808217855250505050505090500182805190602001908083835b60208310611afd5780518252602082019150602081019050602083039250611ada565b6001836020036101000a03801982511681845116808217855250505050505090500192505050604051602081830303815290604052925050505b919050565b6000600560008473ffffffffffffffffffffffffffffffffffffffff1673ffffffffffffffffffffffffffffffffffffffff16815260200190815260200160002060008373ffffffffffffffffffffffffffffffffffffffff1673ffffffffffffffffffffffffffffffffffffffff16815260200190815260200160002060009054906101000a900460ff16905092915050565b6000611be682600261254a90919063ffffffff16565b9050919050565b600033905090565b816004600083815260200190815260200160002060006101000a81548173ffffffffffffffffffffffffffffffffffffffff021916908373ffffffffffffffffffffffffffffffffffffffff160217905550808273ffffffffffffffffffffffffffffffffffffffff16611c688361123e565b73ffffffffffffffffffffffffffffffffffffffff167f8c5be1e5ebec7d5bd14f71427d1e84f3dd0314c0f7b2291e5b200ac8c7c3b92560405160405180910390a45050565b6000611cbc82600001612564565b9050919050565b6000611cce82611bd0565b611d23576040517f08c379a000000000000000000000000000000000000000000000000000000000815260040180806020018281038252602c81526020018061329e602c913960400191505060405180910390fd5b6000611d2e8361123e565b90508073ffffffffffffffffffffffffffffffffffffffff168473ffffffffffffffffffffffffffffffffffffffff161480611d9d57508373ffffffffffffffffffffffffffffffffffffffff16611d8584610bf9565b73ffffffffffffffffffffffffffffffffffffffff16145b80611dae5750611dad8185611b3c565b5b91505092915050565b8273ffffffffffffffffffffffffffffffffffffffff16611dd78261123e565b73ffffffffffffffffffffffffffffffffffffffff1614611e43576040517f08c379a00000000000000000000000000000000000000000000000000000000081526004018080602001828103825260298152602001806133a36029913960400191505060405180910390fd5b600073ffffffffffffffffffffffffffffffffffffffff168273ffffffffffffffffffffffffffffffffffffffff161415611ec9576040517f08c379a00000000000000000000000000000000000000000000000000000000081526004018080602001828103825260248152602001806132546024913960400191505060405180910390fd5b611ed4838383612575565b611edf600082611bf5565b611f3081600160008673ffffffffffffffffffffffffffffffffffffffff1673ffffffffffffffffffffffffffffffffffffffff16815260200190815260200160002061257a90919063ffffffff16565b50611f8281600160008573ffffffffffffffffffffffffffffffffffffffff1673ffffffffffffffffffffffffffffffffffffffff16815260200190815260200160002061259490919063ffffffff16565b50611f99818360026125ae9092919063ffffffff16565b50808273ffffffffffffffffffffffffffffffffffffffff168473ffffffffffffffffffffffffffffffffffffffff167fddf252ad1be2c89b69c2b068fc378daa952ba7f163c4a11628f55a4df523b3ef60405160405180910390a4505050565b600061200983600001836125e3565b60001c905092915050565b60008282111561208c576040517f08c379a000000000000000000000000000000000000000000000000000000000815260040180806020018281038252601e8152602001807f536166654d6174683a207375627472616374696f6e206f766572666c6f77000081525060200191505060405180910390fd5b818303905092915050565b600080828401905083811015612115576040517f08c379a000000000000000000000000000000000000000000000000000000000815260040180806020018281038252601b8152602001807f536166654d6174683a206164646974696f6e206f766572666c6f77000000000081525060200191505060405180910390fd5b8091505092915050565b61213a8383836040518060200160405280600081525061168f565b505050565b6000806000806121528660000186612666565b915091508160001c8160001c9350935050509250929050565b600061217e846000018460001b846126ff565b60001c90509392505050565b6000612198826000016127f5565b9050919050565b6121aa848484611db7565b6121b684848484612806565b61220b576040517f08c379a00000000000000000000000000000000000000000000000000000000081526004018080602001828103825260328152602001806132226032913960400191505060405180910390fd5b50505050565b600080424433604051602001808481526020018381526020018273ffffffffffffffffffffffffffffffffffffffff1660601b815260140193505050506040516020818303038152906040528051906020012060001c905082818161227257fe5b06915050919050565b61228361312d565b6040518060a0016040528085815260200184815260200160008152602001600081526020014263ffffffff168152509050600a81908060018154018082558091505060019003906000526020600020906005020160009091909190915060008201518160000190805190602001906122fc929190613162565b5060208201518160010155604082015181600201556060820151816003015560808201518160040160006101000a81548163ffffffff021916908363ffffffff160217905550505060006001600a8054905003905082600b600083815260200190815260200160002060006101000a81548173ffffffffffffffffffffffffffffffffffffffff021916908373ffffffffffffffffffffffffffffffffffffffff160217905550600c60008473ffffffffffffffffffffffffffffffffffffffff1673ffffffffffffffffffffffffffffffffffffffff168152602001908152602001600020600081548092919060010191905055506123fc8382612a1f565b5050505050565b6060600082141561244b576040518060400160405280600181526020017f30000000000000000000000000000000000000000000000000000000000000008152509050612545565b600082905060005b60008214612475578080600101915050600a828161246d57fe5b049150612453565b60608167ffffffffffffffff8111801561248e57600080fd5b506040519080825280601f01601f1916602001820160405280156124c15781602001600182028036833780820191505090505b50905060006001830390508593505b6000841461253d57600a84816124e257fe5b0660300160f81b828280600190039350815181106124fc57fe5b60200101907effffffffffffffffffffffffffffffffffffffffffffffffffffffffffffff1916908160001a905350600a848161253557fe5b0493506124d0565b819450505050505b919050565b600061255c836000018360001b612c13565b905092915050565b600081600001805490509050919050565b505050565b600061258c836000018360001b612c36565b905092915050565b60006125a6836000018360001b612d1e565b905092915050565b60006125da846000018460001b8473ffffffffffffffffffffffffffffffffffffffff1660001b612d8e565b90509392505050565b600081836000018054905011612644576040517f08c379a00000000000000000000000000000000000000000000000000000000081526004018080602001828103825260228152602001806132006022913960400191505060405180910390fd5b82600001828154811061265357fe5b9060005260206000200154905092915050565b600080828460000180549050116126c8576040517f08c379a00000000000000000000000000000000000000000000000000000000081526004018080602001828103825260228152602001806133556022913960400191505060405180910390fd5b60008460000184815481106126d957fe5b906000526020600020906002020190508060000154816001015492509250509250929050565b600080846001016000858152602001908152602001600020549050600081141583906127c6576040517f08c379a00000000000000000000000000000000000000000000000000000000081526004018080602001828103825283818151815260200191508051906020019080838360005b8381101561278b578082015181840152602081019050612770565b50505050905090810190601f1680156127b85780820380516001836020036101000a031916815260200191505b509250505060405180910390fd5b508460000160018203815481106127d957fe5b9060005260206000209060020201600101549150509392505050565b600081600001805490509050919050565b60006128278473ffffffffffffffffffffffffffffffffffffffff16612e6a565b6128345760019050612a17565b606061299e63150b7a0260e01b612849611bed565b888787604051602401808573ffffffffffffffffffffffffffffffffffffffff1681526020018473ffffffffffffffffffffffffffffffffffffffff16815260200183815260200180602001828103825283818151815260200191508051906020019080838360005b838110156128cd5780820151818401526020810190506128b2565b50505050905090810190601f1680156128fa5780820380516001836020036101000a031916815260200191505b5095505050505050604051602081830303815290604052907bffffffffffffffffffffffffffffffffffffffffffffffffffffffff19166020820180517bffffffffffffffffffffffffffffffffffffffffffffffffffffffff8381831617835250505050604051806060016040528060328152602001613222603291398773ffffffffffffffffffffffffffffffffffffffff16612e7d9092919063ffffffff16565b905060008180602001905160208110156129b757600080fd5b8101908080519060200190929190505050905063150b7a0260e01b7bffffffffffffffffffffffffffffffffffffffffffffffffffffffff1916817bffffffffffffffffffffffffffffffffffffffffffffffffffffffff191614925050505b949350505050565b600073ffffffffffffffffffffffffffffffffffffffff168273ffffffffffffffffffffffffffffffffffffffff161415612ac2576040517f08c379a00000000000000000000000000000000000000000000000000000000081526004018080602001828103825260208152602001807f4552433732313a206d696e7420746f20746865207a65726f206164647265737381525060200191505060405180910390fd5b612acb81611bd0565b15612b3e576040517f08c379a000000000000000000000000000000000000000000000000000000000815260040180806020018281038252601c8152602001807f4552433732313a20746f6b656e20616c7265616479206d696e7465640000000081525060200191505060405180910390fd5b612b4a60008383612575565b612b9b81600160008573ffffffffffffffffffffffffffffffffffffffff1673ffffffffffffffffffffffffffffffffffffffff16815260200190815260200160002061259490919063ffffffff16565b50612bb2818360026125ae9092919063ffffffff16565b50808273ffffffffffffffffffffffffffffffffffffffff16600073ffffffffffffffffffffffffffffffffffffffff167fddf252ad1be2c89b69c2b068fc378daa952ba7f163c4a11628f55a4df523b3ef60405160405180910390a45050565b600080836001016000848152602001908152602001600020541415905092915050565b60008083600101600084815260200190815260200160002054905060008114612d125760006001820390506000600186600001805490500390506000866000018281548110612c8157fe5b9060005260206000200154905080876000018481548110612c9e57fe5b9060005260206000200181905550600183018760010160008381526020019081526020016000208190555086600001805480612cd657fe5b60019003818190600052602060002001600090559055866001016000878152602001908152602001600020600090556001945050505050612d18565b60009150505b92915050565b6000612d2a8383612e95565b612d83578260000182908060018154018082558091505060019003906000526020600020016000909190919091505582600001805490508360010160008481526020019081526020016000208190555060019050612d88565b600090505b92915050565b6000808460010160008581526020019081526020016000205490506000811415612e3557846000016040518060400160405280868152602001858152509080600181540180825580915050600190039060005260206000209060020201600090919091909150600082015181600001556020820151816001015550508460000180549050856001016000868152602001908152602001600020819055506001915050612e63565b82856000016001830381548110612e4857fe5b90600052602060002090600202016001018190555060009150505b9392505050565b600080823b905060008111915050919050565b6060612e8c8484600085612eb8565b90509392505050565b600080836001016000848152602001908152602001600020541415905092915050565b606082471015612f13576040517f08c379a00000000000000000000000000000000000000000000000000000000081526004018080602001828103825260268152602001806132786026913960400191505060405180910390fd5b612f1c85612e6a565b612f8e576040517f08c379a000000000000000000000000000000000000000000000000000000000815260040180806020018281038252601d8152602001807f416464726573733a2063616c6c20746f206e6f6e2d636f6e747261637400000081525060200191505060405180910390fd5b600060608673ffffffffffffffffffffffffffffffffffffffff1685876040518082805190602001908083835b60208310612fde5780518252602082019150602081019050602083039250612fbb565b6001836020036101000a03801982511681845116808217855250505050505090500191505060006040518083038185875af1925050503d8060008114613040576040519150601f19603f3d011682016040523d82523d6000602084013e613045565b606091505b5091509150613055828286613061565b92505050949350505050565b6060831561307157829050613126565b6000835111156130845782518084602001fd5b816040517f08c379a00000000000000000000000000000000000000000000000000000000081526004018080602001828103825283818151815260200191508051906020019080838360005b838110156130eb5780820151818401526020810190506130d0565b50505050905090810190601f1680156131185780820380516001836020036101000a031916815260200191505b509250505060405180910390fd5b9392505050565b6040518060a0016040528060608152602001600081526020016000815260200160008152602001600063ffffffff1681525090565b828054600181600116156101000203166002900490600052602060002090601f016020900481019282601f106131a357805160ff19168380011785556131d1565b828001600101855582156131d1579182015b828111156131d05782518255916020019190600101906131b5565b5b5090506131de91906131e2565b5090565b5b808211156131fb5760008160009055506001016131e3565b509056fe456e756d657261626c655365743a20696e646578206f7574206f6620626f756e64734552433732313a207472616e7366657220746f206e6f6e20455243373231526563656976657220696d706c656d656e7465724552433732313a207472616e7366657220746f20746865207a65726f2061646472657373416464726573733a20696e73756666696369656e742062616c616e636520666f722063616c6c4552433732313a206f70657261746f7220717565727920666f72206e6f6e6578697374656e7420746f6b656e4552433732313a20617070726f76652063616c6c6572206973206e6f74206f776e6572206e6f7220617070726f76656420666f7220616c6c4552433732313a2062616c616e636520717565727920666f7220746865207a65726f20616464726573734552433732313a206f776e657220717565727920666f72206e6f6e6578697374656e7420746f6b656e456e756d657261626c654d61703a20696e646578206f7574206f6620626f756e64734552433732313a20617070726f76656420717565727920666f72206e6f6e6578697374656e7420746f6b656e4552433732313a207472616e73666572206f6620746f6b656e2074686174206973206e6f74206f776e4552433732314d657461646174613a2055524920717565727920666f72206e6f6e6578697374656e7420746f6b656e4552433732313a20617070726f76616c20746f2063757272656e74206f776e65724552433732313a207472616e736665722063616c6c6572206973206e6f74206f776e6572206e6f7220617070726f766564a264697066735822122018ed04d8d20e2abb9861f0dfaff94c04f548baa72daf85663d3ae3c44e86373164736f6c634300060c0033",
  "immutableReferences": {},
  "source": "// SPDX-License-Identifier: UNLICENSED\r\n\r\npragma solidity ^0.6.12;\r\n\r\nimport \"./Virus.sol\";\r\n\r\ncontract VirusFactory is Virus {\r\n\r\n    function mintVirus(string memory _name, uint _level, address _newOwner) public {\r\n        require (_level >= 0 && _level < 10, \"_level parameter is incorrect\");\r\n        require(ownerVirusCount[_newOwner] < 6, \"user already has 5 tokens\");\r\n        uint level = _level;\r\n        if(level == 0) {\r\n            level = _generateNumber(10);\r\n        }\r\n        _mintVirus(_name, level, _newOwner);\r\n    }\r\n\r\n    function _mintVirus(string memory _name, uint _level, address _newOwner) internal {\r\n        CryptoVirus memory virus = CryptoVirus({\r\n            name: _name,\r\n            level: _level,\r\n            wins: 0,\r\n            losses: 0,\r\n            cooldown: uint32(now)\r\n        });\r\n        viruses.push(virus);\r\n        uint id = viruses.length - 1;\r\n        virusToOwner[id] = _newOwner;\r\n        ownerVirusCount[_newOwner]++;\r\n        _mint(_newOwner, id);\r\n    }\r\n    function _generateNumber(uint _mod) internal view returns (uint) {\r\n        uint randomNumber = uint(keccak256(abi.encodePacked(block.timestamp, block.difficulty, msg.sender)));\r\n        return randomNumber % _mod;\r\n    }\r\n\r\n    function safeTransferFrom(address _from, address _to, uint _virusId) public override onlyOwnerOf(_virusId) {\r\n        require(_exists(_virusId));\r\n        ownerVirusCount[_from] = ownerVirusCount[_from].sub(1);\r\n        ownerVirusCount[_to] = ownerVirusCount[_to].add(1);\r\n        virusToOwner[_virusId] = _to;\r\n        super.safeTransferFrom(_from, _to, _virusId);\r\n    }\r\n}\r\n",
  "sourcePath": "C:/Development/blockgeeks/nftgame/contracts/VirusFactory.sol",
  "compiler": {
    "name": "solc",
    "version": "0.6.12+commit.27d51765.Emscripten.clang"
  },
  "schemaVersion": "3.3.4",
  "updatedAt": "2021-03-22T17:58:26.690Z",
  "devdoc": {
    "kind": "dev",
    "methods": {
      "approve(address,uint256)": {
        "details": "See {IERC721-approve}."
      },
      "balanceOf(address)": {
        "details": "See {IERC721-balanceOf}."
      },
      "baseURI()": {
        "details": "Returns the base URI set via {_setBaseURI}. This will be automatically added as a prefix in {tokenURI} to each token's URI, or to the token ID if no specific URI is set for that token ID."
      },
      "getApproved(uint256)": {
        "details": "See {IERC721-getApproved}."
      },
      "isApprovedForAll(address,address)": {
        "details": "See {IERC721-isApprovedForAll}."
      },
      "name()": {
        "details": "See {IERC721Metadata-name}."
      },
      "ownerOf(uint256)": {
        "details": "See {IERC721-ownerOf}."
      },
      "safeTransferFrom(address,address,uint256,bytes)": {
        "details": "See {IERC721-safeTransferFrom}."
      },
      "setApprovalForAll(address,bool)": {
        "details": "See {IERC721-setApprovalForAll}."
      },
      "supportsInterface(bytes4)": {
        "details": "See {IERC165-supportsInterface}. Time complexity O(1), guaranteed to always use less than 30 000 gas."
      },
      "symbol()": {
        "details": "See {IERC721Metadata-symbol}."
      },
      "tokenByIndex(uint256)": {
        "details": "See {IERC721Enumerable-tokenByIndex}."
      },
      "tokenOfOwnerByIndex(address,uint256)": {
        "details": "See {IERC721Enumerable-tokenOfOwnerByIndex}."
      },
      "tokenURI(uint256)": {
        "details": "See {IERC721Metadata-tokenURI}."
      },
      "totalSupply()": {
        "details": "See {IERC721Enumerable-totalSupply}."
      },
      "transferFrom(address,address,uint256)": {
        "details": "See {IERC721-transferFrom}."
      }
    },
    "version": 1
  },
  "userdoc": {
    "kind": "user",
    "methods": {},
    "version": 1
  }
}